:020020002B3182
:1400000000000113392F0F28FE2C8201F539002B12301130B0
:20002400022F800B1930002F80030012022F372800171530402F830B102F820B041306130E
:200044000513802F870B502F890B202F880B102F8A0B102F8C0B102F8B0B802F8D0B0F1366
:1C0064000E1310130C2F9D0B1E131F13201321132213231324132513261311303B
:020022000E319D
:200080002B13AB0FAA0C401A7A00AB0F6B002B0CAC0B112F2C0C01287200A80F800B730003
:2000A00080138003112F2C0C7200A70F800B730080138003112F2C0C02287200A90F800B1F
:2000C0007300801380032B1241307A0025130A2FA60B9F015C1F7A002513052FA60B9F01FB
:2000E0005C1F7A002613DC010F2C9C017A009D0F9F0B112F800B810300129E0B082F501F9D
:20010000DE23501D0000501D9E1563007F309F117B307A00A30F002B9230012BA030022BA2
:20012000B830CF300E2FBB0B3C13272FB90B3A13032FBD0B3E136539042FAA0B40307A0064
:20014000052FBB0B3C13272FB90B3A13032FBD0B3E136539042FAA0B40382D2FB90B3A1339
:200160000B2FBB0B3C13032FBD0B3E136539CF30022FBB0B3C13272FB90B3A13032FBD0BA1
:200180003E136539042FAA0B40382D2FB90B3A13082FBB0B3C13032FBD0B3E136539A40FBB
:2001A0000128A40BA40F012BE030032BEB30042BF630062B0131072B01310A2B0C317A0027
:2001C000112FB90B3A132D2FBB0B3C13032FBD0B3E1365317A00142FB90B3A132D2FBB0B8C
:2001E0003C13032FBD0B3E1365317A00172FB90B3A132D2FBB0B3C13032FBD0B3E136531AC
:200200007A001A2FB90B3A132D2FBB0B3C13032FBD0B3E1365317A0024137A007900031FF2
:20022000342F8301431C202F9101102F9301111D0D1F802F84010A2FB501402FB201602F96
:20024000B4010A2F9F01082F9C01402F9E017800663829317A007200800F7200C51B61315F
:20026000101B4B31A10F002A4D31A00F0128A00BA00F052A4D31012FA10BA30F0128B00B2E
:20028000002F6000B10B032FB20B33138E39A30B24136C384D3120132113A20F0128A20B22
:2002A000A20F322A56318A3877382213A60F002B6031A50F0128A50BA50FA60C401A72389C
:0A02C000C51D7300800B73007B0066
:2002CA00B90FBF0BBA0FC00BB90FC10BBA0FC20BBB0FC30BBC0FC40BBD0FC50BBE0FC60B58
:2002EA00C60F800BC50FC512C610800E002B8A31C30F800BC40FF639800B43124410C10F3C
:12030A0080138003411242107531C00F800BBF0F7A00DE
:20031C00B10F6B00002F6D00B40B002B9B31002FB00C800B002FB10D9E31B00F800BB10F08
:20033C00B60B800FB50BB30F80294018AB31002FB20C800B002FB30DAE31B20F800BB30F9E
:20035C00BC0B800FBB0BB50FB90BB60FBA0BC739B70B800FB80BB40F002BC331002FB70C6B
:12037C00800B002FB80D80137A00B80F800BB70F7A0051
:20038E003D133E130013BC0F6B00002F6D00002ADF31BB15BC16B90FBB0CBA0FBC0D401A72
:2003AE00DB313C153B16DF313E12BE0FBD0BC931BD0F800BB90FBB0CBA0FBC0D4018EB31A6
:1C03CE00BB0FB908BC0FBA093C153B16800F8012002AE131BA0F800BB90F7A0065
:1A03EA0000028029401AFB3181037A0080137200C201FF28801380037A004B
:00000001FF
