:020020007B0063
:1400000000000113482F0F28FE2C8201463B002B123011304E
:20002400022F800B1930002F80030012022F4628001715303413351336133713012F880B13
:2000440009130C2F9A0B1B131C131D131E131F1320132113221323132413251326132713FC
:12006400281329132A132B132C132D132E132F13113055
:02002200BB32EF
:20007600C80FCA0BC90FCB0BCB0F800BCA0FCA12CB10800E002B7A0000003F307A00D01C13
:200096003E2FC80B49133B383113B10F0829401A6230B00F012C002B5A30D01E5B30D01C14
:2000B60030153E2FC80B49133B3831125030D01E3E2FC80B49133B383E2FC80B49133B300F
:2000D6007A00132FA001412FA801111DCD016F2C8D017A00342F83017A00511F7A00FF2F7C
:2000F6009F01402F9C01602F9E017A009A0F9C0B0A2F800B810300129B0B082F501FDB23A2
:20011600501D0000501D9B15630089309C1185307A00A60FC40BA70FC50B192FC20B4313D2
:20013600123BB20B800FB30B072F331532166300A030A60F320CAA0BA70F330DAB0BB20F44
:20015600A60CB30FA70D401AB630A60FB20C800BA70FB30DB8300013002FAD0B800FAC0B85
:200176007A00402FA401002FA201102FA1012119C230EB01800BEC017A00880F082A401AFB
:200196005231012867005231D63009310F312131333139314B31132FC80B4913052FCA0B1D
:2001B6004B13032FCC0B4D13E93A102FC80B4913022FCA0B4B13032FCC0B4D13E93A0D2FA5
:2001D600C80B4913022FCA0B4B13032FCC0B4D13E93A0A2FC80B4913022FCA0B4B13032FEC
:2001F600CC0B4D13E93A082F990B181317131613C82FA40B2513022F880B7A00642FA40BD8
:200216002513032F880B7A00102FC80B4913052FCA0B4B13032FCC0B4D13E93A082F980B16
:20023600642FA40B2513042F880B7A000D2FC80B4913052FCA0B4B13032FCC0B4D13E93A90
:20025600082F970BC82FA40B2513052F880B7A00C82FA40B2513062F880B7A000A2FC80B64
:200276004913052FCA0B4B13032FCC0B4D13E93A082F960BC82FA40B2513072F880B7A0020
:20029600E82FA40B032FA50B012F880B7A000A2FC80B49135F2FCA0B832FCB0B032FCC0B07
:2002B6004D13E93A0D2FC80B49135F2FCA0B832FCB0B032FCC0B4D13E93A102FC80B491355
:2002D6005F2FCA0B832FCB0B032FCC0B4D13E93A132FC80B49135F2FCA0B832FCB0B032F03
:2002F600CC0B4D13E93A81307A00890F002B8731012B8B31022BAB310813012F890B7A009E
:20031600022F9D0B9E0B082F9F0B052FC80B49135C2FCA0B832FCB0B032FCC0B4D13E93A8D
:20033600022FC80B4913592FCA0B832FCB0B032FCC0B4D13E93A012F880B022F890B7A00D4
:200356000A2F9D0B042F9E0B022F9F0B052FC80B4913562FCA0B832FCB0B032FCC0B4D1341
:20037600E93A022FC80B4913532FCA0B832FCB0B032FCC0B4D13E93A012F880B09137A0020
:20039600B40FC90BB50FCA0BB60FCB0BB70FCC0B032F4C154B164A1649166300D431B40F01
:2003B600C90CCD0BB50FCA0DCE0BB60FCB0DCF0BB70FCC0DD00BCD0F480CB40BCE0F6000E9
:2003D600B50BCF0F6000B60BD00F6000B70BB50F800BB40F00156C0000156C0000156C00B2
:2003F6007A00BC38C80BCB39A80B2913A80FAC0CA90FAD0D401A1132012FA10BA80FA60BF1
:20041600A90FA70B94382E132F133932AA0FA80CAB0FA90D401A213221132013A80FA60B49
:20043600A90FA70B94382E132F133932AF0F800BAE0F0128AE0B002F000DAF0BAF0F800B5B
:20045600AE0F4029062F8013800D40183932A80FA60BA90FA70B94382E132F13A10F012A4C
:200476004B32A00F002A4B32FE2F890CB00B4A38A80FB00B4A38012FA00B8039C8307A009A
:20049600FF2FB00B4A38A80FB00B4A307A00FC39A50F800BA40F0A29800F61004018B932E8
:2004B600880F002BB932A40F0A29800BA50F6100A50B800FA40BA30F800BA20F3229800F2D
:2004D60061004018B0323813B80F0429401AAD32162F380C800B8103002BAB32162F380CCA
:2004F600800B810301298003B80F6B00380CB90B0A2F390C0128BA0B0A2F390C0128800B52
:2005160081039D0C800BBA0F801380030A2F390CBB0B0A2F390C800B81039E0C800BBB0F5E
:20053600801380030A2F390C0228BC0B0A2F390C0228800B81039F0C800BBC0F8013800352
:2005560038126F32813822132313A20F0A28800BA30F6000A30B800FA20B7A00C8307A0020
:20057600753878387A383D133E13BD0FFF29FF2F800BBE0F800D401ACC3200003D123E10B9
:20059600C032D11ED01E6C38012F890B081380390A2FBF0BBF0FBF12002BDF32BC38C80B95
:1C05B600CB39A60B2713D5329438DD010A294018E032002F9D01523AE0327A0007
:1E06A60008022002000228027002100200020002400210021002800200020002000268
:2005D200C80FCE0BC90FCF0BC80FD00BC90FD10BCA0FD20BCB0FD30BCC0FD40BCD0FD50B5D
:2005F200D50F800BD40FD412D510800E002B0E33D20F800BD30F473B800B52125310D00FD1
:120612008013800350125110F932CF0F800BCE0F7A0012
:20062400C20FC80BC40FC90B2F3BC00B800FC10BC10FC60BC20FC80BC50FC90B2F3BC70BB2
:1A064400C30FC80BC40FC90B2F3B470C460CC10BC00F800BC10F80137A003E
:20065E004A134B130013800F0829401A4233CA15CB16C80F802C002B3F33C90F4A084B10BA
:0E067E00C81500123233CB0F800BCA0F7A0062
:1A068C0000028029401A4C3381037A0080137200C201FF28801380037A0053
:00000001FF
