:0200200043316A
:14000000000001133D2F0F28FE2C8201193A002B1230113087
:20002400022F800B1930002F80030012022F3B2800171530402F830B102F820B041306130A
:200044000513802F870B502F890B202F880B102F8A0B102F8C0B102F8B0B802F8D0B0F1366
:200064000E1310130C2F9D0B1E131F132013211322132313241325132613271328131130C2
:02002200253186
:20008400132FA001412FA801111DCD016F2C8D017A002D13AD0FAC0C401A7A00AD0F6B0012
:2000A4002D0CAE0B112F2E0C01287200AA0F800B730080138003112F2E0C7200A90F800B39
:2000C400730080138003112F2E0C02287200AB0F800B7300801380032D124C307A00251342
:2000E4000A2FA60B9F015C1F7A002513052FA60B9F015C1F7A002613DC010F2C9C017A0063
:200104009D0F9F0B112F800B810300129E0B082F501FDE23501D0000501D9E1563008A302A
:200124009F1186307A00A30F002B9D30012BAB30022BC330DA300E2FBF0B4013292FBD0B86
:200144003E13032FC10B42138939042FAC0B4B307A00052FBF0B4013292FBD0B3E13032F62
:20016400C10B42138939042FAC0B4B382F2FBD0B3E130B2FBF0B4013032FC10B4213893948
:20018400DA30022FBF0B4013292FBD0B3E13032FC10B42138939042FAC0B4B382F2FBD0BEA
:2001A4003E13082FBF0B4013032FC10B42138939A40F0128A40BA40F012BEB30032BF630A8
:2001C400042B0131062B0C31072B0C310A2B17317A001A2FBD0B3E132F2FBF0B4013032FD7
:2001E400C10B421389317A00172FBD0B3E132F2FBF0B4013032FC10B421389317A00142F02
:20020400BD0B3E132F2FBF0B4013032FC10B421389317A00112FBD0B3E132F2FBF0B4013EB
:20022400032FC10B421389317A0024137A00402FA401002FA201102FA10121191F31EB0145
:20024400800BEC017A007900031F342F8301431C202F91014238802F84010A2FB501402FDA
:20026400B201602FB4010A2F9F01002F9C01402F9E011939A70B800FA80B780071384131F7
:200284007A007200800F7200C51B853119397200A70F0129B20BA80F6100B30B7300B20C6F
:2002A400800FB30D401A6F31A10F002A7131A00F0128A00BA00F052A7131012FA10BA30FE4
:2002C4000128B40B002F6000B50B032FB60B3713B239A30B24137738713120132113A20F6D
:2002E4000128A20BA20F322A7A31953882382213A60F002B8431A50F0128A50BA50FA60C28
:0E030400401A7D38C51D7300800B73007B000E
:20031200BD0FC30BBE0FC40BBD0FC50BBE0FC60BBF0FC70BC00FC80BC10FC90BC20FCA0BCF
:20033200CA0F800BC90FC912CA10800E002BAE31C70F800BC80F1A3A800B47124810C50F86
:1203520080138003451246109931C40F800BC30F7A0062
:20036400B50F6B00002F6D00B80B002BBF31002FB40C800B002FB50DC231B40F800BB50F60
:20038400BA0B800FB90BB70F80294018CF31002FB60C800B002FB70DD231B60F800BB70FF2
:2003A400C00B800FBF0BB90FBD0BBA0FBE0BEB39BB0B800FBC0BB80F002BE731002FBB0CB3
:1203C400800B002FBC0D80137A00BC0F800BBB0F7A00FD
:2003D600411342130013C00F6B00002F6D00002A0332BF15C016BD0FBF0CBE0FC00D401AE1
:2003F600FF3140153F1603324212C20FC10BED31C10F800BBD0FBF0CBE0FC00D40180F32A4
:1C041600BF0FBD08C00FBE0940153F16800F8012002A0532BE0F800BBD0F7A00D7
:1A04320000028029401A1F3281037A0080137200C201FF28801380037A00DD
:00000001FF
