:02002000463167
:1400000000000113422F0F28FE2C8201383A002B1230113063
:20002400022F800B1930002F80030012022F402800171530402F830B102F820B0413061305
:200044000513802F870B502F890B202F880B102F8A0B102F8C0B102F8B0B802F8D0B0F1366
:200064000E1310130C2F9D0B1E131F132013211322132313241325132613271328132913C7
:060084002A132B131130BA
:02002200283183
:20008A00132FA001412FA801111DCD016F2C8D017A003013B00FAF0C401A7A00B00F6B0000
:2000AA00300CB10B112F310C01287200AD0F800B730080138003112F310C7200AC0F800B21
:2000CA00730080138003112F310C02287200AE0F800B73008013800330124F307A00251330
:2000EA000A2FA60B9F015C1F7A002513052FA60B9F015C1F7A002613DC010F2C9C017A005D
:20010A009D0F9F0B112F800B810300129E0B082F501FDE23501D0000501D9E1563008D3021
:20012A009F1189307A00A30F002BA030012BAE30022BC630DD300E2FC40B45132C2FC20B5F
:20014A004313032FC60B4713A839042FAF0B4E307A00052FC40B45132C2FC20B4313032F11
:20016A00C60B4713A839042FAF0B4E38322FC20B43130B2FC40B4513032FC60B4713A839D3
:20018A00DD30022FC40B45132C2FC20B4313032FC60B4713A839042FAF0B4E38322FC20B93
:2001AA004313082FC40B4513032FC60B4713A839A40F0128A40BA40F012BEE30032BF93064
:2001CA00042B0431062B0F31072B0F310A2B1A317A001A2FC20B4313322FC40B4513032FAE
:2001EA00C60B4713A8317A00172FC20B4313322FC40B4513032FC60B4713A8317A00142F93
:20020A00C20B4313322FC40B4513032FC60B4713A8317A00112FC20B4313322FC40B45138E
:20022A00032FC60B4713A8317A0024137A00402FA401002FA201102FA10121192231EB0113
:20024A00800BEC017A007900031F342F8301431C202F91014538802F84010A2FB501402FD1
:20026A00B201602FB4010A2F9F01002F9C01402F9E011C39A70B800FA80B780074384431E8
:20028A007A007200800F7200C51BA4311C39B50B800FB60BB50F29175931B60F2A1759312F
:2002AA00AB0F0128AB0B5E312B13B50FA90BB60FAA0BAB0F642940186731B50FA70BB60F6A
:2002CA00A80B2B13A70F0529B70BA80F6100B80BB60F800BB50FB70C800FB80D401A8E315E
:2002EA00A10F002A9031A00F0128A00BA00F052A9031012FA10BA30F0128B90B002F60002D
:20030A00BA0B032FBB0B3C13D139A30B24137A38903120132113A20F0128A20BA20F322A6A
:20032A009931983885382213A60F002BA331A50F0128A50BA50FA60C401A8038C51D730019
:06034A00800B73007B0034
:20035000C20FC80BC30FC90BC20FCA0BC30FCB0BC40FCC0BC50FCD0BC60FCE0BC70FCF0B41
:20037000CF0F800BCE0FCE12CF10800E002BCD31CC0F800BCD0F393A800B4C124D10CA0FDD
:12039000801380034A124B10B831C90F800BC80F7A00F1
:2003A200BA0F6B00002F6D00BD0B002BDE31002FB90C800B002FBA0DE131B90F800BBA0FC6
:2003C200BF0B800FBE0BBC0F80294018EE31002FBB0C800B002FBC0DF131BB0F800BBC0F53
:2003E200C50B800FC40BBE0FC20BBF0FC30B0A3AC00B800FC10BBD0F002B0632002FC00C03
:12040200800B002FC10D80137A00C10F800BC00F7A00AF
:20041400461347130013C50F6B00002F6D00002A2232C415C516C20FC40CC30FC50D401A56
:200434001E324515441622324712C70FC60B0C32C60F800BC20FC40CC30FC50D40182E32B5
:1C045400C40FC208C50FC30945154416800F8012002A2432C30F800BC20F7A0052
:1A04700000028029401A3E3281037A0080137200C201FF28801380037A0080
:00000001FF
