:020020007B0063
:1400000000000113342F0F28FE2C8201443A002B1230113065
:20002400022F800B1930002F80030012022F322800171530012F880B09130C2F9A0B1B131F
:200044001C131D131E131F1320132113221323132413251326132713281329132A13113031
:020022000632A4
:20006400132FA001412FA801111DCD016F2C8D017A00342F83017A00511F7A00FF2F9F01C8
:20008400402F9C01602F9E017A009A0F9C0B0A2F800B810300129B0B082F501FDB23501D47
:2000A4000000501D9B1563004F309C114B307A00402FA401002FA201102FA101211960300A
:2000C400EB01800BEC017A00880F082A401A7430012867007430A230D530DB30ED30FF3015
:2000E400053117310A2FB40B35135D2FB60B822FB70B032FB80B39131B3A0D2FB40B3513A5
:200104005D2FB60B822FB70B032FB80B39131B3A102FB40B35135D2FB60B822FB70B032F4D
:20012400B80B39131B3A132FB40B35135D2FB60B822FB70B032FB80B39131B3A47307A00C7
:20014400132FB40B3513052FB60B3713032FB80B39131B3A102FB40B3513022FB60B3713FB
:20016400032FB80B39131B3A0D2FB40B3513022FB60B3713032FB80B39131B3A0A2FB40BD8
:200184003513022FB60B3713032FB80B39131B3A082F990B181317131613C82FA40B25130A
:2001A400022F880B7A00642FA40B2513032F880B7A00102FB40B3513052FB60B3713032F8D
:2001C400B80B39131B3A082F980B282FA40B2513042F880B7A000D2FB40B3513052FB60B27
:2001E4003713032FB80B39131B3A082F970BC82FA40B2513052F880B7A00C82FA40B251345
:20020400062F880B7A000A2FB40B3513052FB60B3713032FB80B39131B3A082F960BC82FB4
:20022400A40B2513072F880B7A00E82FA40B032FA50B012F880B7A00890F002B2531012B66
:200244002931022B49310813012F890B7A00022F9D0B9E0B082F9F0B052FB40B35135A2F19
:20026400B60B822FB70B032FB80B39131B3A022FB40B3513572FB60B822FB70B032FB80BC9
:2002840039131B3A012F880B022F890B7A000A2F9D0B042F9E0B022F9F0B052FB40B3513E4
:2002A400542FB60B822FB70B032FB80B39131B3A022FB40B3513512FB60B822FB70B032FCF
:2002C400B80B39131B3A012F880B09137A005A38AB0B800FAC0BAB0F28177731AC0F291733
:2002E4007731AA0F0128AA0B7C312A13AB0FA80BAC0FA90BAA0F642940188531AB0FA60B36
:20030400AC0FA70B2A13A60F0529AD0BA70F6100AE0BAC0F800BAB0FAD0C800FAE0D401A67
:200324009B31A10F002A7A00012FA10B1E3966307A0021137A006939A50F800BA40F0A29E1
:20034400800F610040180432880F002B0432A40F0A29800BA50F6100A50B800FA40BA30FFD
:20036400800BA20F3229800F61004018FB312F13AF0F0429401AF831162F2F0C800B81032F
:20038400002BF631162F2F0C800B810301298003AF0F6B002F0CB00B0A2F300C0128B10B52
:2003A4000A2F300C0128800B81039D0C800BB10F801380030A2F300CB20B0A2F300C800B50
:2003C40081039E0C800BB20F801380030A2F300C0228B30B0A2F300C0228800B81039F0CD3
:2003E400800BB30F801380032F12BA31473822132313A20F0A28800BA30F6000A30B800FC3
:20040400A20B7A0066307A003B383E38403832385A38A60B800FA70B012F890B08131E391C
:12042400DD010A2940181232002F9D019D3912327A00B8
:1E04A2000802200200022802700210020002000240021002100280020002000200026E
:20043600B40FBA0BB50FBB0BB40FBC0BB50FBD0BB60FBE0BB70FBF0BB80FC00BB90FC10B3A
:20045600C10F800BC00FC012C110800E002B4032BE0F800BBF0F453A800B3E123F10BC0FF4
:12047600801380033C123D102B32BB0F800BBA0F7A00CE
:1A04880000028029401A4A3281037A0080137200C201FF28801380037A005C
:00000001FF
