:020020007B0063
:1400000000000113382F0F28FE2C82016B3A002B123011303A
:20002400022F800B1930002F80030012022F362800171530012F8B0B0C130C2F9D0B1E130F
:200044001F1320132113221323132413251326132713281329132A132B132C132D132E1304
:02006400113059
:020022001D328D
:20006600B80FBA0BB90FBB0BBB0F800BBA0FBA12BB10800E002B7A00000037307A00D01CAB
:200086003E2FB80B391333380413840F1029401A5C30820F800B830F00225330D01E5430E5
:2000A600D01C031502163E2FB80B3913333804124830D01E3E2FB80B391333307A00132F20
:2000C600A001412FA801111DCD016F2C8D017A00342F83017A00511F7A00FF2F9F01402F39
:2000E6009C01602F9E017A009D0F9F0B0D2F800B810300129E0B082F501FDE23501D000045
:20010600501D9E1563007F309F117B307A00402FA401002FA201102FA10121199030EB0125
:20012600800BEC017A008B0F082A401A2031012867002031A430D730DD30EF3001310731FE
:200146001931162FB80B3913082FBA0B3B13032FBC0B3D13423A132FB80B3913052FBA0BA2
:200166003B13032FBC0B3D13423A102FB80B3913052FBA0B3B13032FBC0B3D13423A0D2FD0
:20018600B80B3913052FBA0B3B13032FBC0B3D13423A082F9C0B1B131A131913C82FA70B30
:2001A6002813022F8B0B7A00642FA70B2813032F8B0B7A00132FB80B3913082FBA0B3B1360
:2001C600032FBC0B3D13423A082F9B0B642FA70B2813042F8B0B7A00102FB80B3913082F2F
:2001E600BA0B3B13032FBC0B3D13423A082F9A0BC82FA70B2813052F8B0B7A00C82FA70B74
:200206002813062F8B0B7A000D2FB80B3913082FBA0B3B13032FBC0B3D13423A082F990B23
:20022600C82FA70B2813072F8B0B7A00E82FA70B032FA80B012F8B0B7A000D2FB80B391355
:20024600842FBA0B822FBB0B032FBC0B3D13423A102FB80B3913842FBA0B822FBB0B032F75
:20026600BC0B3D13423A132FB80B3913842FBA0B822FBB0B032FBC0B3D13423A162FB80BD8
:200286003913842FBA0B822FBB0B032FBC0B3D13423A77307A008C0F002B5531012B593135
:2002A600022B79310B13012F8C0B7A00022FA00BA10B082FA20B082FB80B3913812FBA0BDB
:2002C600822FBB0B032FBC0B3D13423A052FB80B39137E2FBA0B822FBB0B032FBC0B3D1367
:2002E600423A012F8B0B022F8C0B7A000A2FA00B042FA10B022FA20B082FB80B39137B2FE3
:20030600BA0B822FBB0B032FBC0B3D13423A052FB80B3913782FBA0B822FBB0B032FBC0BB7
:200326003D13423A012F8B0B0C137A008A38AF0B800FB00BAF0F820BB00F830B4238B00FF5
:20034600800BAF0F0629800F6100401AB231A40F002A7A00012FA40B4E3996307A002413BE
:200366007A009939A80F800BA70F0A29800F610040181B328B0F002B1B32A70F0A29800BE5
:20038600A80F6100A80B800FA70BA60F800BA50F3229800F6100401812323113B10F04293F
:2003A600401A0F32192F310C800B8103002B0D32192F310C800B810301298003B10F6B0032
:2003C600310CB20B0D2F320C0128B30B0D2F320C0128800B8103A00C800BB30F80138003FB
:2003E6000D2F320CB40B0D2F320C800B8103A10C800BB40F801380030D2F320C0228B50BC0
:200406000D2F320C0228800B8103A20C800BB50F801380033112D131773825132613A50FF7
:200426000A28800BA60F6000A60B800FA50B7A0096307A006B386E38703836133713B60FF1
:20044600FF29FF2F800BB70F800D401A2E320000361237102232D11ED01E62388A38A90BD8
:1E046600800FAA0B012F8C0B0B134E39DD010A2940183932002F9D01B43939327A0055
:1E04F00008022002000228027002100200020002400210021002800200020002000220
:20048400B80FBE0BB90FBF0BB80FC00BB90FC10BBA0FC20BBB0FC30BBC0FC40BBD0FC50BAC
:2004A400C50F800BC40FC412C510800E002B6732C20F800BC30F6C3A800B42124310C00F34
:1204C40080138003401241105232BF0F800BBE0F7A0049
:1A04D60000028029401A713281037A0080137200C201FF28801380037A00E7
:00000001FF
