:020020002D3180
:1400000000000113392F0F28FE2C8201FB39002B12301130AA
:20002400022F800B1930002F80030012022F372800171530402F830B102F820B041306130E
:200044000513802F870B502F890B202F880B102F8A0B102F8C0B102F8B0B802F8D0B0F1366
:1C0064000E1310130C2F9D0B1E131F13201321132213231324132513261311303B
:0200220010319B
:200080002B13AB0FAA0C401A6530AB0F6B002B0CAC0B112F2C0C01287200A80F800B7300E8
:2000A00080138003112F2C0C7200A70F800B730080138003112F2C0C02287200A90F800B1F
:2000C0007300801380032B1241307A0025130A2FA60B0A2F9F015C1F7A002513052FA60B62
:2000E000052F9F015C1F7A002613DC010F2C9C017A009D0F9F0B112F800B810300129E0B6F
:20010000082F501FDE23501D0000501D9E15630081309F117D307A00A30F002B9430012BF3
:20012000A230022BBA30D1300E2FBB0B3C13272FB90B3A13032FBD0B3E136B39042FAA0B45
:2001400040307A00052FBB0B3C13272FB90B3A13032FBD0B3E136B39042FAA0B40382D2F5A
:20016000B90B3A130B2FBB0B3C13032FBD0B3E136B39D130022FBB0B3C13272FB90B3A1382
:20018000032FBD0B3E136B39042FAA0B40382D2FB90B3A13082FBB0B3C13032FBD0B3E130C
:2001A0006B39A40F0128A40BA40F012BE230032BED30042BF830062B0331072B03310A2B7D
:2001C0000E310F311A2FB90B3A132D2FBB0B3C13032FBD0B3E136B310F31172FB90B3A1357
:2001E0002D2FBB0B3C13032FBD0B3E136B310F31142FB90B3A132D2FBB0B3C13032FBD0BA8
:200200003E136B310F31112FB90B3A132D2FBB0B3C13032FBD0B3E136B310F3124137A0017
:200220007900031F342F8301431C202F9101102F9301111D0D1F802F84010A2FB501402F3D
:20024000B201602FB4010A2F9F01082F9C01402F9E01780066382B317A007200800F72008D
:20026000C501802C002B6731D001102C002B5131A10F002A5331A00F0128A00BA00F052AD0
:200280005331012FA10BA30F0128B00B002F6000B10B032FB20B33139439A30B24136D3891
:2002A000533120132113A20F0128A20BA20F322A5C318C3879382213A60F002B6631A50F5D
:1602C0000128A50BA50FA60C401A7438C51D7300800B73007B0015
:2002D600B90FBF0BBA0FC00BB90FC10BBA0FC20BBB0FC30BBC0FC40BBD0FC50BBE0FC60B4C
:2002F600C60F800BC50FC512C610800E002B9031C30F800BC40FFC39800B43124410C10F24
:1203160080138003411242107B31C00F800BBF0F7A00CC
:20032800B10F6B00002F6D00B40B002BA131002FB00C800B002FB10DA431B00F800BB10FF0
:20034800B60B800FB50BB30F80294018B131002FB20C800B002FB30DB431B20F800BB30F86
:20036800BC0B800FBB0BB50FB90BB60FBA0BCD39B70B800FB80BB40F002BC931002FB70C53
:12038800800B002FB80D80137A00B80F800BB70F7A0045
:20039A003D133E130013BC0F6B00002F6D00002AE531BB15BC16B90FBB0CBA0FBC0D401A60
:2003BA00E1313C153B16E5313E12BE0FBD0BCF31BD0F800BB90FBB0CBA0FBC0D4018F13182
:1C03DA00BB0FB908BC0FBA093C153B16800F8012002AE731BA0F800BB90F7A0053
:1A03F60000028029401A013281037A0080137200C201FF28801380037A0038
:00000001FF
